:100000000C9434000C9449000C9449000C94490061
:100010000C9449000C9449000C9449000C9449003C
:100020000C9449000C9449000C9449000C9449002C
:100030000C9449000C9449000C9449000C9449001C
:100040000C9449000C9449000C9449000C9449000C
:100050000C9449000C9449000C9449000C944900FC
:100060000C9449000C94490011241FBECFEFD8E036
:10007000DEBFCDBF11E0A0E0B1E0E6E7F2E002C0F4
:1000800005900D92A831B107D9F70E945E000C943B
:1000900039010C9400009091C00095FFFCCF809333
:1000A000C6000895CF93DF93EC018991811103C0BD
:1000B000DF91CF9108950E944B00F7CFCDB7DEB707
:1000C0002A970FB6F894DEBF0FBECDBF259A1092C7
:1000D000C50087E68093C40088E18093C10086E074
:1000E0008093C20080E480937C0087E880937A004C
:1000F00080E091E00E94520000E088248A9483E02E
:10010000982EA12CB12C90E2792E2AE0C22ED12C6F
:1001100030E3632E8FE39CE90197F1F700C0000004
:1001200080917A00806480937A0080917A0086FDC5
:10013000FCCF2091780030917900A8E8B3E10E94CB
:100140002A016F83788789879A87A50194010E9485
:10015000080179010F5F0A3020F085B1872585B944
:1001600000E08091C00087FFD5CF8091C600863720
:1001700099F5E114F10449F4698211E011111FC0ED
:1001800082E191E00E945200ECCF3E2D2F2D10E035
:10019000E1E0F0E0EC0FFD1FE10FF11D17FDFA9516
:1001A0001F5F832F922FB6010E94F400805D808331
:1001B000832F922F362F272F0A9750F7DFCF11501A
:1001C000E1E0F0E0EC0FFD1FE10FF11D17FDFA95E6
:1001D00080810E944B00D2CF893619F480E091E0F3
:1001E000D1CF0E944B00BDCFAA1BBB1B51E107C062
:1001F000AA1FBB1FA617B70710F0A61BB70B881FB7
:10020000991F5A95A9F780959095BC01CD01089545
:10021000A1E21A2EAA1BBB1BFD010DC0AA1FBB1F0A
:10022000EE1FFF1FA217B307E407F50720F0A21B7C
:10023000B30BE40BF50B661F771F881F991F1A94E9
:1002400069F760957095809590959B01AC01BD0113
:10025000CF010895A29FB001B39FC001A39F700D6D
:10026000811D1124911DB29F700D811D1124911DBE
:060270000895F894FFCF91
:1002760067616C76616E692D64656D6F2076310DF0
:080286000A006D560D0A00008C
:00000001FF
