:100000000C9434000C9449000C9449000C94490061
:100010000C9449000C9449000C9449000C9449003C
:100020000C9449000C9449000C9449000C9449002C
:100030000C9449000C9449000C9449000C9449001C
:100040000C9449000C9449000C9449000C9449000C
:100050000C9449000C9449000C9449000C944900FC
:100060000C9449000C94490011241FBECFEFD8E036
:10007000DEBFCDBF11E0A0E0B1E0E8E8F1E002C0F2
:1000800005900D92A231B107D9F70E9482000C941D
:10009000C2000C9400009091C00095FFFCCF8093AB
:1000A000C6000895CF93C82FE82FE295EF70F0E0D7
:1000B000E050FF4F80810E944B00CF70EC2FF0E0AA
:1000C000E050FF4F8081CF910C944B00482F27E0E8
:1000D00030E080E050E0BA01022E02C075956795CD
:1000E0000A94E2F760FF0CC05E9A5D9A880F992728
:1000F0004F999395892B5D982150310960F70895A8
:100100005E98F3CF1092C50087E68093C40088E024
:100110008093C10086E08093C2008AB180678AB96B
:1001200057985C9A5D985C9885EF0E94660080E025
:100130000E946600182F5C9A5C988FEC0E94660003
:1001400080E00E946600D82F80E00E946600C82FE1
:100150005C9A87E50E944B00812F0E94520087E441
:100160000E944B008D2F0E9452008C2F0E94520043
:100170008AE00E944B008FE19EE40197F1F700C0F6
:080180000000D1CFF894FFCF7D
:1001880030313233343536373839414243444546C5
:02019800000065
:00000001FF
