:100000000C9434000C943E000C943E000C943E0082
:100010000C943E000C943E000C943E000C943E0068
:100020000C943E000C943E000C943E000C943E0058
:100030000C943E000C943E000C943E000C943E0048
:100040000C943E000C943E000C943E000C943E0038
:100050000C943E000C943E000C943E000C943E0028
:100060000C943E000C943E0011241FBECFEFD8E04C
:10007000DEBFCDBF0E9451000C9409010C9400001A
:100080009091C00095FFFCCF8093C60008958093A7
:10009000BB0084E88093BC008091BC0087FFFCCF4C
:1000A000089500D000D000D00F92CDB7DEB7209ACF
:1000B00028981092C50087E68093C40088E080935A
:1000C000C10086E08093C2001092B90088E480935A
:1000D000B80084E08093BC0034EAD32E44E9C42EF7
:1000E00054ECB52E64E8A62E70E3972EEAE0EE2ECF
:1000F000F12CD092BC008091BC0087FFFCCF80E93E
:100100000E94470080E00E944700C092BC002AE69F
:100110002A95F1F700C0D092BC008091BC0087FF07
:10012000FCCF81E90E944700B092BC008091BC00E6
:1001300087FFFCCF9091BB00A092BC008091BC00D7
:1001400087FFFCCF8091BB00C092BC002AE62A95B5
:10015000F1F700C0092F112707FD1A9581159E415F
:10016000C4F0289A9801012BF1F4998211E0111141
:100170002FC083E40E9440008DE00E9440008AE08E
:100180000E9440008FE19EE40197F1F700C000005B
:10019000B0CF289817FFE6CF8DE20E9440002227BB
:1001A0003327201B310B10E0E1E0F0E0EC0FFD1FE6
:1001B000E10FF11D17FDFA951F5FC901B7010E94FC
:1001C000F500805D8083C9019B010A9768F7CFCF56
:1001D0001150E1E0F0E0EC0FFD1FE10FF11D17FD04
:1001E000FA9580810E944000C2CFAA1BBB1B51E13F
:1001F00007C0AA1FBB1FA617B70710F0A61BB70B97
:10020000881F991F5A95A9F780959095BC01CD013B
:060210000895F894FFCFF1
:00000001FF
