:100000000C9434000C9449000C9449000C94490061
:100010000C9449000C9449000C9449000C9449003C
:100020000C9449000C9449000C9449000C9449002C
:100030000C9449000C9449000C9449000C9449001C
:100040000C9449000C9449000C9449000C9449000C
:100050000C9449000C9449000C9449000C944900FC
:100060000C9449000C94490011241FBECFEFD8E036
:10007000DEBFCDBF11E0A0E0B1E0E6E9F2E002C0F2
:1000800005900D92A231B107D9F70E94FF000C94A0
:1000900049010C9400009091C00095FFFCCF809323
:1000A000C6000895CF93C82FE82FE295EF70F0E0D7
:1000B000E050FF4F80810E944B00CF70EC2FF0E0AA
:1000C000E050FF4F8081CF910C944B00539A0895DC
:1000D0005B9A08955B9808955A9A08955A980895DE
:1000E0000F931F93CF93DF93C82F0E94660007E002
:1000F00010E0D0E0CE01002E02C0959587950A94BD
:10010000E2F780FF17C00E9468000E946C000E9406
:100110006E000150110970F753980E946C00C9B12C
:100120000E946E008827C3FF8395DF91CF911F91B6
:100130000F9108950E946A00E8CFDF92EF92FF923C
:100140000F931F93CF93DF93F82E062FD72F142FE3
:100150000E9466000E9468000E946C000E946A0073
:100160000E946E0080ED0E947000C82F8F2D0E94AB
:100170007000C8230E9466000E9468000E946C0004
:100180000E946A000E946E0081ED0E947000C823E8
:10019000E02EFD2E00E00F5F539888E0D82ED0E0CF
:1001A0000E946C00DD0F88274B998395D82B0E9405
:1001B0006E00DA94A9F70E9466000117E8F40E9425
:1001C0006A000E946C000E946E005398F701D19360
:1001D0007F010113E0CF0E9466000E946A000E9426
:1001E0006C000E9468008C2FDF91CF911F910F91BE
:1001F000FF90EF90DF9008950E946800E2CF00D05A
:100200000F92CDB7DEB71092C50087E68093C40089
:1002100088E08093C10086E08093C200529A0E94D9
:100220006C000E9466000E9468001B8241E0BE01D3
:100230006D5F7F4F85E70E949D00182F19821A82FB
:1002400042E0BE016F5F7F4F81E40E949D00F98014
:100250000A81182381E4111101C08EE60E944B002F
:1002600087E50E944B008B810E94520084E50E942A
:100270004B008F2D0E945200802F0E9452008AE076
:100280000E944B008FE19EE40197F1F700C000004F
:06029000CCCFF894FFCF73
:1002960030313233343536373839414243444546B6
:0202A600000056
:00000001FF
